{
  "abi": [
    {
      "inputs": [],
      "stateMutability": "payable",
      "type": "constructor"
    },
    {
      "anonymous": false,
      "inputs": [
        {
          "indexed": false,
          "internalType": "address",
          "name": "sender",
          "type": "address"
        },
        {
          "indexed": false,
          "internalType": "string",
          "name": "purpose",
          "type": "string"
        }
      ],
      "name": "SetPurpose",
      "type": "event"
    },
    {
      "stateMutability": "payable",
      "type": "fallback"
    },
    {
      "inputs": [],
      "name": "purpose",
      "outputs": [
        {
          "internalType": "string",
          "name": "",
          "type": "string"
        }
      ],
      "stateMutability": "view",
      "type": "function"
    },
    {
      "inputs": [
        {
          "internalType": "string",
          "name": "newPurpose",
          "type": "string"
        }
      ],
      "name": "setPurpose",
      "outputs": [],
      "stateMutability": "nonpayable",
      "type": "function"
    },
    {
      "stateMutability": "payable",
      "type": "receive"
    }
  ],
  "bytecode": {
    "object": "0x60c0604052601c60808190527f4275696c64696e6720556e73746f707061626c6520417070732121210000000060a090815261003e9160009190610044565b50610117565b828054610050906100dd565b90600052602060002090601f01602090048101928261007257600085556100b8565b82601f1061008b57805160ff19168380011785556100b8565b828001600101855582156100b8579182015b828111156100b857825182559160200191906001019061009d565b506100c49291506100c8565b5090565b5b808211156100c457600081556001016100c9565b600181811c908216806100f157607f821691505b60208210810361011157634e487b7160e01b600052602260045260246000fd5b50919050565b610411806101266000396000f3fe60806040526004361061002a5760003560e01c806370740aab14610033578063eb68757f1461005e57005b3661003157005b005b34801561003f57600080fd5b5061004861007e565b60405161005591906101f6565b60405180910390f35b34801561006a57600080fd5b50610031610079366004610261565b61010c565b6000805461008b90610312565b80601f01602080910402602001604051908101604052809291908181526020018280546100b790610312565b80156101045780601f106100d957610100808354040283529160200191610104565b820191906000526020600020905b8154815290600101906020018083116100e757829003601f168201915b505050505081565b805161011f90600090602084019061015d565b507f6ea5d6383a120235c7728a9a6751672a8ac068e4ed34dcca2ee444182c1812de33600060405161015292919061034c565b60405180910390a150565b82805461016990610312565b90600052602060002090601f01602090048101928261018b57600085556101d1565b82601f106101a457805160ff19168380011785556101d1565b828001600101855582156101d1579182015b828111156101d15782518255916020019190600101906101b6565b506101dd9291506101e1565b5090565b5b808211156101dd57600081556001016101e2565b600060208083528351808285015260005b8181101561022357858101830151858201604001528201610207565b81811115610235576000604083870101525b50601f01601f1916929092016040019392505050565b634e487b7160e01b600052604160045260246000fd5b60006020828403121561027357600080fd5b813567ffffffffffffffff8082111561028b57600080fd5b818401915084601f83011261029f57600080fd5b8135818111156102b1576102b161024b565b604051601f8201601f19908116603f011681019083821181831017156102d9576102d961024b565b816040528281528760208487010111156102f257600080fd5b826020860160208301376000928101602001929092525095945050505050565b600181811c9082168061032657607f821691505b60208210810361034657634e487b7160e01b600052602260045260246000fd5b50919050565b60018060a01b0383168152600060206040818401526000845481600182811c91508083168061037c57607f831692505b858310810361039957634e487b7160e01b85526022600452602485fd5b60408801839052606088018180156103b857600181146103c9576103f4565b60ff198616825287820196506103f4565b60008b81526020902060005b868110156103ee578154848201529085019089016103d5565b83019750505b50949a995050505050505050505056fea164736f6c634300080d000a",
    "linkReferences": {}
  }
}